{
  "_format": "hh-sol-artifact-1",
  "contractName": "Attacker",
  "sourceName": "contracts/Attacker.sol",
  "abi": [
    {
      "inputs": [
        {
          "internalType": "contract IEscrow",
          "name": "_target",
          "type": "address"
        }
      ],
      "stateMutability": "nonpayable",
      "type": "constructor"
    },
    {
      "inputs": [
        {
          "internalType": "bool",
          "name": "v",
          "type": "bool"
        }
      ],
      "name": "setTryRefund",
      "outputs": [],
      "stateMutability": "nonpayable",
      "type": "function"
    },
    {
      "inputs": [
        {
          "internalType": "bool",
          "name": "v",
          "type": "bool"
        }
      ],
      "name": "setTryRelease",
      "outputs": [],
      "stateMutability": "nonpayable",
      "type": "function"
    },
    {
      "inputs": [],
      "name": "target",
      "outputs": [
        {
          "internalType": "contract IEscrow",
          "name": "",
          "type": "address"
        }
      ],
      "stateMutability": "view",
      "type": "function"
    },
    {
      "inputs": [],
      "name": "tryRefund",
      "outputs": [
        {
          "internalType": "bool",
          "name": "",
          "type": "bool"
        }
      ],
      "stateMutability": "view",
      "type": "function"
    },
    {
      "inputs": [],
      "name": "tryRelease",
      "outputs": [
        {
          "internalType": "bool",
          "name": "",
          "type": "bool"
        }
      ],
      "stateMutability": "view",
      "type": "function"
    },
    {
      "stateMutability": "payable",
      "type": "receive"
    }
  ],
  "bytecode": "0x608060405234801561001057600080fd5b5060405161066a38038061066a83398181016040528101906100329190610124565b61004c67d779edcf2c3e72d360c01b6100ac60201b60201c565b6100666796b2e1371b0db4af60c01b6100ac60201b60201c565b806000806101000a81548173ffffffffffffffffffffffffffffffffffffffff021916908373ffffffffffffffffffffffffffffffffffffffff16021790555050610151565b50565b600080fd5b600073ffffffffffffffffffffffffffffffffffffffff82169050919050565b60006100df826100b4565b9050919050565b60006100f1826100d4565b9050919050565b610101816100e6565b811461010c57600080fd5b50565b60008151905061011e816100f8565b92915050565b60006020828403121561013a576101396100af565b5b60006101488482850161010f565b91505092915050565b61050a806101606000396000f3fe60806040526004361061004e5760003560e01c80636ea16f3a14610224578063a92ae1c21461024f578063ae95a99f14610278578063c1e4f0fc146102a3578063d4b83992146102cc5761021f565b3661021f576100676706f22efbf6e521b860c01b6102f7565b600060149054906101000a900460ff161561012357610090675813f59ee2411b9260c01b6102f7565b6100a4673671ba95104c039d60c01b6102f7565b60008054906101000a900473ffffffffffffffffffffffffffffffffffffffff1673ffffffffffffffffffffffffffffffffffffffff166386d1a69f6040518163ffffffff1660e01b8152600401600060405180830381600087803b15801561010c57600080fd5b505af192505050801561011d575060015b50610138565b6101376749a68ffa32d8de0260c01b6102f7565b5b61014c6715f129f153b8be2d60c01b6102f7565b600060159054906101000a900460ff1615610208576101756763d8255879b2623060c01b6102f7565b61018967063a6c3725d3fc5d60c01b6102f7565b60008054906101000a900473ffffffffffffffffffffffffffffffffffffffff1673ffffffffffffffffffffffffffffffffffffffff1663590e1ae36040518163ffffffff1660e01b8152600401600060405180830381600087803b1580156101f157600080fd5b505af1925050508015610202575060015b5061021d565b61021c676d34982050c9683160c01b6102f7565b5b005b600080fd5b34801561023057600080fd5b506102396102fa565b60405161024691906103c1565b60405180910390f35b34801561025b57600080fd5b506102766004803603810190610271919061040d565b61030d565b005b34801561028457600080fd5b5061028d61033e565b60405161029a91906103c1565b60405180910390f35b3480156102af57600080fd5b506102ca60048036038101906102c5919061040d565b610351565b005b3480156102d857600080fd5b506102e1610382565b6040516102ee91906104b9565b60405180910390f35b50565b600060159054906101000a900460ff1681565b610321670e08d639f18f511760c01b6102f7565b80600060156101000a81548160ff02191690831515021790555050565b600060149054906101000a900460ff1681565b61036567bd69d7612716c41660c01b6102f7565b80600060146101000a81548160ff02191690831515021790555050565b60008054906101000a900473ffffffffffffffffffffffffffffffffffffffff1681565b60008115159050919050565b6103bb816103a6565b82525050565b60006020820190506103d660008301846103b2565b92915050565b600080fd5b6103ea816103a6565b81146103f557600080fd5b50565b600081359050610407816103e1565b92915050565b600060208284031215610423576104226103dc565b5b6000610431848285016103f8565b91505092915050565b600073ffffffffffffffffffffffffffffffffffffffff82169050919050565b6000819050919050565b600061047f61047a6104758461043a565b61045a565b61043a565b9050919050565b600061049182610464565b9050919050565b60006104a382610486565b9050919050565b6104b381610498565b82525050565b60006020820190506104ce60008301846104aa565b9291505056fea26469706673582212207bd419270dfa4d780bd5fb83bb8a93768ee7108aa936548fe1dd17c4394e7dfa64736f6c63430008140033",
  "linkReferences": {},
  "deployedLinkReferences": {}
}