{
  "_format": "hh-sol-artifact-1",
  "contractName": "Escrow",
  "sourceName": "contracts/Escrow.sol",
  "abi": [
    {
      "inputs": [
        {
          "internalType": "address",
          "name": "_beneficiary",
          "type": "address"
        },
        {
          "internalType": "address",
          "name": "_arbiter",
          "type": "address"
        }
      ],
      "stateMutability": "nonpayable",
      "type": "constructor"
    },
    {
      "inputs": [],
      "name": "ReentrancyGuardReentrantCall",
      "type": "error"
    },
    {
      "anonymous": false,
      "inputs": [
        {
          "indexed": true,
          "internalType": "address",
          "name": "from",
          "type": "address"
        },
        {
          "indexed": false,
          "internalType": "uint256",
          "name": "amount",
          "type": "uint256"
        }
      ],
      "name": "Deposited",
      "type": "event"
    },
    {
      "anonymous": false,
      "inputs": [
        {
          "indexed": true,
          "internalType": "address",
          "name": "to",
          "type": "address"
        },
        {
          "indexed": false,
          "internalType": "uint256",
          "name": "amount",
          "type": "uint256"
        }
      ],
      "name": "Refunded",
      "type": "event"
    },
    {
      "anonymous": false,
      "inputs": [
        {
          "indexed": true,
          "internalType": "address",
          "name": "to",
          "type": "address"
        },
        {
          "indexed": false,
          "internalType": "uint256",
          "name": "amount",
          "type": "uint256"
        }
      ],
      "name": "Released",
      "type": "event"
    },
    {
      "inputs": [],
      "name": "amount",
      "outputs": [
        {
          "internalType": "uint256",
          "name": "",
          "type": "uint256"
        }
      ],
      "stateMutability": "view",
      "type": "function"
    },
    {
      "inputs": [],
      "name": "arbiter",
      "outputs": [
        {
          "internalType": "address",
          "name": "",
          "type": "address"
        }
      ],
      "stateMutability": "view",
      "type": "function"
    },
    {
      "inputs": [],
      "name": "balance",
      "outputs": [
        {
          "internalType": "uint256",
          "name": "",
          "type": "uint256"
        }
      ],
      "stateMutability": "view",
      "type": "function"
    },
    {
      "inputs": [],
      "name": "beneficiary",
      "outputs": [
        {
          "internalType": "address",
          "name": "",
          "type": "address"
        }
      ],
      "stateMutability": "view",
      "type": "function"
    },
    {
      "inputs": [],
      "name": "deposit",
      "outputs": [],
      "stateMutability": "payable",
      "type": "function"
    },
    {
      "inputs": [],
      "name": "depositor",
      "outputs": [
        {
          "internalType": "address",
          "name": "",
          "type": "address"
        }
      ],
      "stateMutability": "view",
      "type": "function"
    },
    {
      "inputs": [],
      "name": "funded",
      "outputs": [
        {
          "internalType": "bool",
          "name": "",
          "type": "bool"
        }
      ],
      "stateMutability": "view",
      "type": "function"
    },
    {
      "inputs": [],
      "name": "refund",
      "outputs": [],
      "stateMutability": "nonpayable",
      "type": "function"
    },
    {
      "inputs": [],
      "name": "release",
      "outputs": [],
      "stateMutability": "nonpayable",
      "type": "function"
    },
    {
      "inputs": [],
      "name": "withdrawn",
      "outputs": [
        {
          "internalType": "bool",
          "name": "",
          "type": "bool"
        }
      ],
      "stateMutability": "view",
      "type": "function"
    }
  ],
  "bytecode": "0x60806040523480156200001157600080fd5b506040516200191a3803806200191a833981810160405281019062000037919062000304565b60016000819055506200005b67120c530660fb20f960c01b6200029760201b60201c565b6200007767c99027a255faab9360c01b6200029760201b60201c565b620000936751050d8c1479c1ec60c01b6200029760201b60201c565b620000af67ef98d31b93c670d060c01b6200029760201b60201c565b600073ffffffffffffffffffffffffffffffffffffffff168273ffffffffffffffffffffffffffffffffffffffff16141580156200011a5750600073ffffffffffffffffffffffffffffffffffffffff168173ffffffffffffffffffffffffffffffffffffffff1614155b6200015c576040517f08c379a00000000000000000000000000000000000000000000000000000000081526004016200015390620003ac565b60405180910390fd5b6200017867e6be504bc264ad9260c01b6200029760201b60201c565b62000194678d988f2ba40b8d8260c01b6200029760201b60201c565b33600160006101000a81548173ffffffffffffffffffffffffffffffffffffffff021916908373ffffffffffffffffffffffffffffffffffffffff160217905550620001f167021fbb898536361960c01b6200029760201b60201c565b81600260006101000a81548173ffffffffffffffffffffffffffffffffffffffff021916908373ffffffffffffffffffffffffffffffffffffffff1602179055506200024e67c061e7972aaad4b160c01b6200029760201b60201c565b80600360006101000a81548173ffffffffffffffffffffffffffffffffffffffff021916908373ffffffffffffffffffffffffffffffffffffffff1602179055505050620003ce565b50565b600080fd5b600073ffffffffffffffffffffffffffffffffffffffff82169050919050565b6000620002cc826200029f565b9050919050565b620002de81620002bf565b8114620002ea57600080fd5b50565b600081519050620002fe81620002d3565b92915050565b600080604083850312156200031e576200031d6200029a565b5b60006200032e85828601620002ed565b92505060206200034185828601620002ed565b9150509250929050565b600082825260208201905092915050565b7f5a65726f20616464726573730000000000000000000000000000000000000000600082015250565b600062000394600c836200034b565b9150620003a1826200035c565b602082019050919050565b60006020820190508181036000830152620003c78162000385565b9050919050565b61153c80620003de6000396000f3fe6080604052600436106100915760003560e01c8063c7c4ff4611610059578063c7c4ff4614610145578063c80ec52214610170578063d0e30db01461019b578063f3a504f2146101a5578063fe25e00a146101d057610091565b806338af3eed14610096578063590e1ae3146100c157806386d1a69f146100d8578063aa8c217c146100ef578063b69ef8a81461011a575b600080fd5b3480156100a257600080fd5b506100ab6101fb565b6040516100b89190611136565b60405180910390f35b3480156100cd57600080fd5b506100d6610221565b005b3480156100e457600080fd5b506100ed610767565b005b3480156100fb57600080fd5b50610104610cad565b604051610111919061116a565b60405180910390f35b34801561012657600080fd5b5061012f610cb3565b60405161013c919061116a565b60405180910390f35b34801561015157600080fd5b5061015a610cf7565b6040516101679190611136565b60405180910390f35b34801561017c57600080fd5b50610185610d1d565b60405161019291906111a0565b60405180910390f35b6101a3610d30565b005b3480156101b157600080fd5b506101ba611069565b6040516101c791906111a0565b60405180910390f35b3480156101dc57600080fd5b506101e561107c565b6040516101f29190611136565b60405180910390f35b600260009054906101000a900473ffffffffffffffffffffffffffffffffffffffff1681565b610235677c0373faa05ad85160c01b6110a2565b61024967bf5eeb6eb36fb41c60c01b6110a2565b61025d67e15ef6dba57b5de560c01b6110a2565b610271671fefaea7ddd2a97a60c01b6110a2565b610285677060cf8396306b9460c01b6110a2565b600360009054906101000a900473ffffffffffffffffffffffffffffffffffffffff1673ffffffffffffffffffffffffffffffffffffffff163373ffffffffffffffffffffffffffffffffffffffff1614610315576040517f08c379a000000000000000000000000000000000000000000000000000000000815260040161030c90611218565b60405180910390fd5b61032967bab77a9ee77b921f60c01b6110a2565b61033d6732a87e619100cb4760c01b6110a2565b610351678ae20bc891a4283e60c01b6110a2565b61036567a924d41a3bfb4f5160c01b6110a2565b61036d6110a5565b61038167e737646a0f2fe87160c01b6110a2565b61039567d4d8b7524413dbd260c01b6110a2565b6103a967441d81b4232f0b4c60c01b6110a2565b6103bd673f0bfd3b90bea37c60c01b6110a2565b6103d1670a8342181bb19c2060c01b6110a2565b600560009054906101000a900460ff16610420576040517f08c379a000000000000000000000000000000000000000000000000000000000815260040161041790611284565b60405180910390fd5b61043467d692db3a0eb00eb760c01b6110a2565b61044867b533a6d44c49368760c01b6110a2565b61045c67c1bd0259166598f760c01b6110a2565b6104706714d3aa9cbdb8b52d60c01b6110a2565b600560019054906101000a900460ff16156104c0576040517f08c379a00000000000000000000000000000000000000000000000000000000081526004016104b7906112f0565b60405180910390fd5b6104d467a027a57e4b94e83c60c01b6110a2565b6104e867fe0c101379cfca4d60c01b6110a2565b6001600560016101000a81548160ff02191690831515021790555061051767791e776631e572ae60c01b6110a2565b6000600560006101000a81548160ff021916908315150217905550610546677ead4ea6fb1108d560c01b6110a2565b61055a671d43b6aaac97d36760c01b6110a2565b6000600454905061057567a6eb7186c275538760c01b6110a2565b60006004819055506105916707e8648c471fb2b160c01b6110a2565b6105a567f3c935d1f6d32f7a60c01b6110a2565b6000600160009054906101000a900473ffffffffffffffffffffffffffffffffffffffff1673ffffffffffffffffffffffffffffffffffffffff16826040516105ed90611341565b60006040518083038185875af1925050503d806000811461062a576040519150601f19603f3d011682016040523d82523d6000602084013e61062f565b606091505b5050905061064767c47e723654f3ca9160c01b6110a2565b61065b675a1d32f24423604560c01b6110a2565b61066f67601747ea80efa06460c01b6110a2565b806106af576040517f08c379a00000000000000000000000000000000000000000000000000000000081526004016106a6906113a2565b60405180910390fd5b6106c367c51402add21f94a560c01b6110a2565b6106d767adb8c8691db153b960c01b6110a2565b6106eb6754deab3fe401a58360c01b6110a2565b600160009054906101000a900473ffffffffffffffffffffffffffffffffffffffff1673ffffffffffffffffffffffffffffffffffffffff167fd7dee2702d63ad89917b6a4da9981c90c4d24f8c2bdfd64c604ecae57d8d065183604051610753919061116a565b60405180910390a250506107656110eb565b565b61077b672aa7630b7209fe2360c01b6110a2565b61078f67bf5eeb6eb36fb41c60c01b6110a2565b6107a367e15ef6dba57b5de560c01b6110a2565b6107b7671fefaea7ddd2a97a60c01b6110a2565b6107cb677060cf8396306b9460c01b6110a2565b600360009054906101000a900473ffffffffffffffffffffffffffffffffffffffff1673ffffffffffffffffffffffffffffffffffffffff163373ffffffffffffffffffffffffffffffffffffffff161461085b576040517f08c379a000000000000000000000000000000000000000000000000000000000815260040161085290611218565b60405180910390fd5b61086f67bab77a9ee77b921f60c01b6110a2565b6108836732a87e619100cb4760c01b6110a2565b61089767a77daec42223b2d960c01b6110a2565b6108ab67d2c97efac62e909a60c01b6110a2565b6108b36110a5565b6108c7672e6827c7b4534e1a60c01b6110a2565b6108db67db30d3396830ae9060c01b6110a2565b6108ef67f1f21d9ff0258bca60c01b6110a2565b610903674e7c730b97662e3b60c01b6110a2565b6109176748b212f34536661860c01b6110a2565b600560009054906101000a900460ff16610966576040517f08c379a000000000000000000000000000000000000000000000000000000000815260040161095d90611284565b60405180910390fd5b61097a670cccc5d9cbb603dc60c01b6110a2565b61098e673c2cdc8528d4574160c01b6110a2565b6109a267e16bbc3895c300f360c01b6110a2565b6109b667990b6286325c80d960c01b6110a2565b600560019054906101000a900460ff1615610a06576040517f08c379a00000000000000000000000000000000000000000000000000000000081526004016109fd906112f0565b60405180910390fd5b610a1a6792450461b1527a6860c01b6110a2565b610a2e672d50b8c6006b6e6360c01b6110a2565b6001600560016101000a81548160ff021916908315150217905550610a5d6719cd7ad2a19d022960c01b6110a2565b6000600560006101000a81548160ff021916908315150217905550610a8c67a2dd4b95cf5e4c0760c01b6110a2565b610aa0674b094cfaa641e86e60c01b6110a2565b60006004549050610abb67b660af4ba771456760c01b6110a2565b6000600481905550610ad7673a92433b0346aeae60c01b6110a2565b610aeb67e95385852705164c60c01b6110a2565b6000600260009054906101000a900473ffffffffffffffffffffffffffffffffffffffff1673ffffffffffffffffffffffffffffffffffffffff1682604051610b3390611341565b60006040518083038185875af1925050503d8060008114610b70576040519150601f19603f3d011682016040523d82523d6000602084013e610b75565b606091505b50509050610b8d67949a83278ef54c6f60c01b6110a2565b610ba1672228b0bd8ad3368360c01b6110a2565b610bb5672a93337c9e0b6f4e60c01b6110a2565b80610bf5576040517f08c379a0000000000000000000000000000000000000000000000000000000008152600401610bec906113a2565b60405180910390fd5b610c096762a934043f611d2860c01b6110a2565b610c1d6795d680dda909891f60c01b6110a2565b610c31679d319c1620063e1660c01b6110a2565b600260009054906101000a900473ffffffffffffffffffffffffffffffffffffffff1673ffffffffffffffffffffffffffffffffffffffff167fb21fb52d5749b80f3182f8c6992236b5e5576681880914484d7f4c9b062e619e83604051610c99919061116a565b60405180910390a25050610cab6110eb565b565b60045481565b6000610cc967855fd6db518441f460c01b6110a2565b610cdd67a760d5e2465c7e9d60c01b6110a2565b610cf167d96326aa615a3b8b60c01b6110a2565b47905090565b600160009054906101000a900473ffffffffffffffffffffffffffffffffffffffff1681565b600560019054906101000a900460ff1681565b610d44672bf3553424c14bb760c01b6110a2565b610d58674df802fc880053b360c01b6110a2565b610d6c670506cbe5c8946a1560c01b6110a2565b610d80676f771edc86a4c31f60c01b6110a2565b610d9467db034a11c2fa129d60c01b6110a2565b600160009054906101000a900473ffffffffffffffffffffffffffffffffffffffff1673ffffffffffffffffffffffffffffffffffffffff163373ffffffffffffffffffffffffffffffffffffffff1614610e24576040517f08c379a0000000000000000000000000000000000000000000000000000000008152600401610e1b9061140e565b60405180910390fd5b610e3867271652b73b600ed460c01b6110a2565b610e4c67a63cf7cb9bed3d8760c01b6110a2565b610e6067983507c08e93245b60c01b6110a2565b610e74674999ffdf7a99537060c01b6110a2565b610e88679b227c5eb7ef519860c01b6110a2565b610e9c67df575bca797164c760c01b6110a2565b610eb06716ff387e78b4ed1260c01b6110a2565b600560009054906101000a900460ff1615610f00576040517f08c379a0000000000000000000000000000000000000000000000000000000008152600401610ef79061147a565b60405180910390fd5b610f14673475ab4a63c5094760c01b6110a2565b610f28672b4cb81fb70475a660c01b6110a2565b610f3c6724041b00768d389c60c01b6110a2565b610f50670eba241ccef787e160c01b6110a2565b60003411610f93576040517f08c379a0000000000000000000000000000000000000000000000000000000008152600401610f8a906114e6565b60405180910390fd5b610fa7676e5cce3259005acc60c01b6110a2565b610fbb67baa3206b4ae9f10560c01b6110a2565b34600481905550610fd667dea4da729c186fa960c01b6110a2565b6001600560006101000a81548160ff02191690831515021790555061100567b2bcfcb1401afc0d60c01b6110a2565b61101967e4bdaeca17d0bca260c01b6110a2565b3373ffffffffffffffffffffffffffffffffffffffff167f2da466a7b24304f47e87fa2e1e5a81b9831ce54fec19055ce277ca2f39ba42c43460405161105f919061116a565b60405180910390a2565b600560009054906101000a900460ff1681565b600360009054906101000a900473ffffffffffffffffffffffffffffffffffffffff1681565b50565b6002600054036110e1576040517f3ee5aeb500000000000000000000000000000000000000000000000000000000815260040160405180910390fd5b6002600081905550565b6001600081905550565b600073ffffffffffffffffffffffffffffffffffffffff82169050919050565b6000611120826110f5565b9050919050565b61113081611115565b82525050565b600060208201905061114b6000830184611127565b92915050565b6000819050919050565b61116481611151565b82525050565b600060208201905061117f600083018461115b565b92915050565b60008115159050919050565b61119a81611185565b82525050565b60006020820190506111b56000830184611191565b92915050565b600082825260208201905092915050565b7f4f6e6c7920617262697465720000000000000000000000000000000000000000600082015250565b6000611202600c836111bb565b915061120d826111cc565b602082019050919050565b60006020820190508181036000830152611231816111f5565b9050919050565b7f4e6f742066756e64656400000000000000000000000000000000000000000000600082015250565b600061126e600a836111bb565b915061127982611238565b602082019050919050565b6000602082019050818103600083015261129d81611261565b9050919050565b7f416c72656164792077697468647261776e000000000000000000000000000000600082015250565b60006112da6011836111bb565b91506112e5826112a4565b602082019050919050565b60006020820190508181036000830152611309816112cd565b9050919050565b600081905092915050565b50565b600061132b600083611310565b91506113368261131b565b600082019050919050565b600061134c8261131e565b9150819050919050565b7f5472616e73666572206661696c65640000000000000000000000000000000000600082015250565b600061138c600f836111bb565b915061139782611356565b602082019050919050565b600060208201905081810360008301526113bb8161137f565b9050919050565b7f4f6e6c79206465706f7369746f72000000000000000000000000000000000000600082015250565b60006113f8600e836111bb565b9150611403826113c2565b602082019050919050565b60006020820190508181036000830152611427816113eb565b9050919050565b7f416c72656164792066756e646564000000000000000000000000000000000000600082015250565b6000611464600e836111bb565b915061146f8261142e565b602082019050919050565b6000602082019050818103600083015261149381611457565b9050919050565b7f4e6f2066756e6473000000000000000000000000000000000000000000000000600082015250565b60006114d06008836111bb565b91506114db8261149a565b602082019050919050565b600060208201905081810360008301526114ff816114c3565b905091905056fea26469706673582212203d7fc9f414984ae319c793daba08057d6c236c326e392e9b1309b277c6e3b38b64736f6c63430008140033",
  "linkReferences": {},
  "deployedLinkReferences": {}
}